:100000000C942A000C942B120C945E120C94701217
:100010000C9447000C9447000C9447000C94DB0BA5
:100020000C9447000C9447000C94400F0C94730FF1
:100030000C9447000C94BB080C9495080C94470052
:100040000C9447000C9447000C9447000C94470014
:100050000C94470011241FBECFE5D8E0DEBFCDBF12
:1000600011E0A0E6B0E0E8E1F7E602C005900D92ED
:10007000AA39B107D9F711E0AAE9B1E001C01D9290
:10008000A63AB107E1F70E94ED320C948A330C9442
:100090000000EF92FF920F931F937B018C0120E0F1
:1000A00030E040E05FE40E94F50388238CF0C80153
:1000B000B70120E030E040E05FE40E94C1010E940F
:1000C00055049B01AC01205030404040504806C0D0
:1000D000C801B7010E9455049B01AC01B901CA01D6
:1000E0001F910F91FF90EF900895A0E0B0E0EBE733
:1000F000F0E00C945333DC012B01FA019C91923017
:1001000008F439C1EB018881823008F433C194309E
:1001100069F4843009F02FC111969C91119789815F
:10012000981709F428C1A9E6B0E025C1843009F484
:1001300021C18230A9F4923009F01DC19A01AD01AC
:1001400088E0EA010990AE01E90109929E0181501F
:10015000C1F7E201898111969C918923818308C1AD
:10016000923009F407C112962D903C901397EB0141
:100170008A819B811496AD90BD90CD90DC901797AD
:10018000EC80FD800E811F819101281B390BB90184
:1001900037FF04C066277727621B730B6032710537
:1001A0000CF061C0121613066CF537014801062EDB
:1001B00004C096948794779467940A94D2F721E0C8
:1001C00030E040E050E004C0220F331F441F551FB1
:1001D0006A95D2F721503040404050402E213F21B7
:1001E00040235123211531054105510521F021E01E
:1001F00030E040E050E079018A01E628F72808293C
:1002000019293CC0232BD1F1260E371E350146019A
:10021000062E04C096948794779467940A94D2F734
:1002200021E030E040E050E004C0220F331F441FC3
:10023000551F6A95D2F721503040404050402A2146
:100240003B214C215D21211531054105510521F04E
:1002500021E030E040E050E059016A01A628B728CB
:10026000C828D9280BC0821593052CF01C01AA249C
:10027000BB24650103C0EE24FF24870111969C91E5
:10028000D20111968C91981709F445C0992339F041
:10029000A80197012A193B094C095D0906C0A6016E
:1002A00095012E193F09400B510B57FD08C01182D3
:1002B0003382228224833583468357831DC081E0A5
:1002C00081833382228288279927DC01821B930B4A
:1002D000A40BB50B84839583A683B7830DC0220F2F
:1002E000331F441F551F24833583468357838281E0
:1002F000938101979383828324813581468157813D
:10030000DA01C9010197A109B1098F5F9F4FAF4F72
:10031000BF4328F30BC0918333822282EA0CFB1C7B
:100320000C1D1D1DE482F5820683178383E0808304
:10033000248135814681578157FF1AC0C901AA27F8
:1003400097FDA095BA2F81709070A070B0705695EF
:10035000479537952795822B932BA42BB52B848318
:100360009583A683B7838281938101969383828349
:10037000DF0101C0D201CD01CDB7DEB7E2E10C94BF
:100380006F33A0E2B0E0E7ECF1E00C945F336983F7
:100390007A838B839C832D833E834F835887E9E048
:1003A000EE2EF12CEC0EFD1ECE010196B7010E943F
:1003B00046068E010F5E1F4FCE010596B8010E94C2
:1003C00046068A8991E089278A8BC701B801AE0168
:1003D000475E5F4F0E9475000E947105A096E6E09F
:1003E0000C947B33A0E2B0E0E8EFF1E00C945F33D3
:1003F00069837A838B839C832D833E834F835887C5
:10040000F9E0EF2EF12CEC0EFD1ECE010196B701A6
:100410000E9446068E010F5E1F4FCE010596B80161
:100420000E944606C701B801AE01475E5F4F0E94B9
:1004300075000E947105A096E6E00C947B33A0E263
:10044000B0E0E5E2F2E00C94533369837A838B8366
:100450009C832D833E834F835887CE010196BE0136
:10046000675F7F4F0E944606CE010596BE016F5E14
:100470007F4F0E9446069985923088F089898230A4
:10048000C8F0943019F4823051F404C0843029F457
:10049000923081F489E690E0C6C0923049F420E0C1
:1004A0009A858A89981321E02A87CE010996BBC0D4
:1004B000823049F420E09A858A89981321E02A8BBA
:1004C000CE014196B0C02D843E844F8458886D88FB
:1004D0007E888F88988CEE24FF248701AA24BB2471
:1004E000650140E050E060E070E0E0E0F0E0C10174
:1004F00081709070892BE9F0E60CF71C081D191D1E
:100500009A01AB012A0D3B1D4C1D5D1D80E090E062
:10051000A0E0B0E0E614F7040805190520F481E036
:1005200090E0A0E0B0E0BA01A901480F591F6A1F8E
:100530007B1FAA0CBB1CCC1CDD1C97FE08C081E0F5
:1005400090E0A0E0B0E0A82AB92ACA2ADB2A3196B6
:10055000E032F10549F0660C771C881C991C569412
:10056000479437942794C3CFFA85EA892B893C892D
:100570008B859C85280F391F2E5F3F4F17C0CA01FE
:1005800081709070892B61F016950795F794E79428
:1005900080E090E0A0E0B0E8E82AF92A0A2B1B2BC3
:1005A00076956795579547952F5F3F4F77FDE7CF36
:1005B0000CC0440F551F661F771F17FD4160EE0CDE
:1005C000FF1C001F111F21503040403090E05907A0
:1005D00090E0690790E4790760F32B8F3C8FDB0193
:1005E000CA018F779070A070B07080349105A1051A
:1005F000B10561F447FD0AC0E114F10401051105DC
:1006000029F0405C5F4F6F4F7F4F40781A8EFE1786
:1006100011F081E08A8F4D8F5E8F6F8F78A383E01A
:10062000898FCE0149960E947105A096E2E10C9453
:100630006F33A8E1B0E0EFE1F3E00C945B33698342
:100640007A838B839C832D833E834F835887B9E0C5
:10065000EB2EF12CEC0EFD1ECE010196B7010E948F
:1006600046068E010F5E1F4FCE010596B8010E940F
:1006700046062985223008F47EC03989323010F4CC
:10068000B8017CC08A859A8989278A87243011F02D
:10069000223031F4231709F06EC069E670E06EC0B5
:1006A000343039F41D861E861F86188A1C861B86E8
:1006B00004C0323021F484E08987B7015FC02B8504
:1006C0003C858B899C89281B390B3C872B87ED84C3
:1006D000FE840F851889AD88BE88CF88D88CEA142F
:1006E000FB040C051D0540F4EE0CFF1C001F111F40
:1006F000215030403C872B8720E030E040E050E044
:1007000080E090E0A0E0B0E460E070E0EA14FB0478
:100710000C051D0540F0282B392B4A2B5B2BEA18C2
:10072000FB080C091D09B695A79597958795EE0CC2
:10073000FF1C001F111F6F5F7F4F6F31710531F775
:10074000DA01C9018F779070A070B0708034910584
:10075000A105B10561F427FD0AC0E114F10401050A
:10076000110529F0205C3F4F4F4F5F4F20782D87B8
:100770003E874F87588BBE01675F7F4FCB010E943A
:1007800071056896EAE00C947733A8E1B0E0EBECF1
:10079000F3E00C945F3369837A838B839C832D838E
:1007A0003E834F83588789E0E82EF12CEC0EFD1E26
:1007B000CE010196B7010E9446068E010F5E1F4FC3
:1007C000CE010596B8010E9446068985823040F028
:1007D0008989823028F0C701B8010E94BE0601C095
:1007E0008FEF6896E6E00C947B33A8E1B0E0EBEF86
:1007F000F3E00C945F3369837A838B839C832D832E
:100800003E834F83588789E0E82EF12CEC0EFD1EC5
:10081000CE010196B7010E9446068E010F5E1F4F62
:10082000CE010596B8010E9446068985823040F0C7
:100830008989823028F0C701B8010E94BE0601C034
:100840008FEF6896E6E00C947B33A8E1B0E0EBE232
:10085000F4E00C945F3369837A838B839C832D83CC
:100860003E834F83588789E0E82EF12CEC0EFD1E65
:10087000CE010196B7010E9446068E010F5E1F4F02
:10088000CE010596B8010E9446068985823040F067
:100890008989823028F0C701B8010E94BE0601C0D4
:1008A00081E06896E6E00C947B33ACE0B0E0EBE5E9
:1008B000F4E00C94633369837A838B839C83CE0149
:1008C0000196BE016B5F7F4F0E9446068D8182308C
:1008D00061F1823050F1843021F48E81882351F10E
:1008E0002EC02F81388537FD20C06E812F31310514
:1008F0001CF06623F9F023C08EE190E0821B930B7D
:1009000029853A854B855C8504C056954795379572
:1009100027958A95D2F76623B1F05095409530958A
:1009200021953F4F4F4F5F4F0EC020E030E040E039
:1009300050E009C02FEF3FEF4FEF5FE704C020E02A
:1009400030E040E050E8B901CA012C96E2E00C9496
:100950007F33A8E0B0E0EFEAF4E00C945B337B0176
:100960008C01611571058105910519F482E0898377
:1009700060C083E089838EE1C82ED12CDC82CB82DB
:10098000ED82FE820F831887C801B7010E942205FD
:10099000FC013197F7FF3BC0222733272E1B3F0B6B
:1009A00057016801022E04C0D694C794B794A79447
:1009B0000A94D2F740E050E060E070E081E090E01F
:1009C000A0E0B0E004C0880F991FAA1FBB1F2A95A2
:1009D000D2F70197A109B1098E219F21A023B1234C
:1009E0000097A105B10521F041E050E060E070E022
:1009F0004A295B296C297D294D835E836F83788723
:100A00008EE190E08E1B9F0B9C838B8312C03097EE
:100A100081F00E2E04C0EE0CFF1C001F111F0A9463
:100A2000D2F7ED82FE820F831887CE1ADF0ADC82AE
:100A3000CB821A82CE0101960E9471052896EAE0C7
:100A40000C947733EF92FF920F931F937B018C01ED
:100A500080E0E81680E0F80681E0080780E01807EB
:100A600088F48FEFE816F1040105110531F028F044
:100A700088E090E0A0E0B0E017C080E090E0A0E067
:100A8000B0E012C080E0E81680E0F80680E00807D9
:100A900081E0180728F088E190E0A0E0B0E004C011
:100AA00080E190E0A0E0B0E020E230E040E050E003
:100AB000281B390B4A0B5B0B04C016950795F7945E
:100AC000E7948A95D2F7F701EF58FF4F8081281BF2
:100AD000310941095109C9011F910F91FF90EF9010
:100AE0000895DF92EF92FF920F931F93FC01E48031
:100AF000F58006811781D1808081823048F480E0C2
:100B000090E0A0E1B0E0E82AF92A0A2B1B2BA5C04F
:100B1000843009F49FC0823021F4EE24FF24870141
:100B200005C0E114F1040105110519F4E0E0F0E05D
:100B300096C0628173819FEF623879070CF05BC0C9
:100B400022E83FEF261B370B2A3131052CF020E03D
:100B500030E040E050E02AC0B801A701022E04C0F6
:100B600076956795579547950A94D2F781E090E07E
:100B7000A0E0B0E004C0880F991FAA1FBB1F2A95F0
:100B8000D2F70197A109B1098E219F21A023B1239A
:100B90000097A105B10521F081E090E0A0E0B0E070
:100BA0009A01AB01282B392B4A2B5B2BDA01C901A7
:100BB0008F779070A070B07080349105A105B10559
:100BC00039F427FF09C0205C3F4F4F4F5F4F04C0EF
:100BD000215C3F4F4F4F5F4FE0E0F0E02030A0E05E
:100BE0003A07A0E04A07A0E45A0710F0E1E0F0E07D
:100BF00079018A0127C06038710564F5FB01E1586D
:100C0000FF4FD801C7018F779070A070B07080340B
:100C10009105A105B10539F4E7FE0DC080E490E02F
:100C2000A0E0B0E004C08FE390E0A0E0B0E0E80E08
:100C3000F91E0A1F1B1F17FF05C016950795F7948D
:100C4000E794319687E016950795F794E7948A958F
:100C5000D1F705C0EE24FF248701EFEFF0E06E2FFF
:100C6000679566276795902F9F77D794DD24D79453
:100C70008E2F8695492F462B582F5D29B701CA0123
:100C80001F910F91FF90EF90DF900895FC01DB0121
:100C9000408151812281622F6F7770E0221F2227CD
:100CA000221F9381892F880F822B282F30E0991FD4
:100CB0009927991F11969C93119721153105A9F534
:100CC000411551056105710511F482E037C082E8D4
:100CD0009FEF13969C938E9312979A01AB0167E056
:100CE000220F331F441F551F6A95D1F783E08C9361
:100CF0000DC0220F331F441F551F12968D919C91DA
:100D00001397019713969C938E931297203080E04F
:100D1000380780E0480780E4580758F314962D936D
:100D20003D934D935C93179708952F3F310579F4C8
:100D3000411551056105710519F484E08C930895FE
:100D400064FF03C081E08C9312C01C9210C02F5727
:100D5000304013963C932E93129783E08C9387E058
:100D6000440F551F661F771F8A95D1F7706414963C
:100D70004D935D936D937C93179708951F93DC01BA
:100D8000FB019C91923008F447C08081823008F4C6
:100D900043C0943051F411961C91843099F58181AF
:100DA000682F70E0611B71093FC0843021F09230E0
:100DB00031F48230B9F18181882389F12DC01196F7
:100DC0001C9111978230F1F081811817D9F4129695
:100DD0002D913C911397828193818217930794F010
:100DE00028173907BCF014968D919D910D90BC91F8
:100DF000A02D2481358146815781281739074A075C
:100E00005B0718F4112341F00AC082179307A40767
:100E1000B50740F4112319F061E070E005C06FEFF1
:100E20007FEF02C060E070E0CB011F910895DF9377
:100E3000CF930F92CDB7DEB78983A1E4B0E0E1E4B0
:100E4000F0E08081887F8C93A1E4B0E0E1E4F0E001
:100E500090818981892B8C93A1E4B0E0E1E4F0E0FA
:100E6000808188608C930F90CF91DF910895DF93FC
:100E7000CF93CDB7DEB7E1E4F0E080E18083CF919E
:100E8000DF910895DF93CF93CDB7DEB727970FB6E5
:100E9000F894DEBF0FBECDBF8B836C834D833F8341
:100EA0002E838E819F81CC01A0E0B0E0880F991F36
:100EB000AA1FBB1F880F991FAA1FBB1F880F991F4E
:100EC000AA1FBB1F880F991FAA1FBB1F9C01AD0142
:100ED00080E092E1AAE7B0E0BC01CD010E9431338D
:100EE000DA01C90101979A838983AAE2B0E0EAE2B4
:100EF000F0E0808188608C93AAE2B0E0EAE2F0E062
:100F0000808180618C93A0E4B0E0E0E4F0E0808137
:100F10008F7B8C93A0E4B0E0E0E4F0E080818F7CF4
:100F20008C93A0E4B0E0E0E4F0E08081282F8B8196
:100F3000882F90E082959295907F9827807F9827C0
:100F4000822B8C93A0E4B0E0E0E4F0E08081877F26
:100F50008C93A0E4B0E0E0E4F0E08081282F8C8165
:100F6000882F90E0880F991F880F991F880F991F6D
:100F7000822B8C93A0E4B0E0E0E4F0E08081897FF4
:100F80008C93A0E4B0E0E0E4F0E08081282F8D8134
:100F9000882F90E0880F991F822B8C93AAE2B0E0F3
:100FA000EAE2F0E080818B7F8C93AAE2B0E0EAE293
:100FB000F0E090818D81892B8C93E0E4F0E08981D1
:100FC0009A81892F99278083E9E2F0E089818083E3
:100FD00027960FB6F894DEBF0FBECDBFCF91DF913D
:100FE0000895DF93CF930F92CDB7DEB78983EBE2FD
:100FF000F0E08081829586958770882F90E08170DF
:1010000090700097A1F3ECE2F0E0898180830F906B
:10101000CF91DF910895DF93CF93CDB7DEB7EBE2A9
:10102000F0E080818823DCF7ECE2F0E08081CF9172
:10103000DF910895DF93CF9300D00F92CDB7DEB745
:101040009B838A8319820EC08981282F30E08A8190
:101050009B81FC01E20FF31F80810E94F1078981CF
:101060008F5F89838981282F30E08A819B81FC01F1
:10107000E20FF31F8081882339F70F900F900F90B4
:10108000CF91DF9108950F931F93DF93CF9300D0FB
:101090000F92CDB7DEB79B838A8319820FC08981F7
:1010A000282F30E08A819B818C01020F131F0E9440
:1010B0000B08F801808389818F5F89838981282FBC
:1010C00030E08A819B81FC01E20FF31F80818E3228
:1010D00031F70F900F900F90CF91DF911F910F91EB
:1010E0000895DF93CF930F92CDB7DEB78983AAE23D
:1010F000B0E0EAE2F0E0808180628C9389818093A5
:101100009A010F90CF91DF910895DF93CF93CDB7E0
:10111000DEB7AAE2B0E0EAE2F0E0808180688C937A
:101120008091A501CF91DF9108951F920F920FB684
:101130000F9211248F93AF93BF93EF93FF93DF939D
:10114000CF93CDB7DEB7ECE2F0E080919A018083D7
:10115000AAE2B0E0EAE2F0E080818F7D8C93CF914B
:10116000DF91FF91EF91BF91AF918F910F900FBEE3
:101170000F901F9018951F920F920FB60F92112487
:101180008F93EF93FF93DF93CF93CDB7DEB7ECE26E
:10119000F0E080818093A501CF91DF91FF91EF91E5
:1011A0008F910F900FBE0F901F901895DF93CF93E4
:1011B00000D000D000D0CDB7DEB79A838983E98113
:1011C000FA818081882351F0E981FA81808184301D
:1011D00029F0E981FA8180818C3079F4AFE4B0E0C4
:1011E000EFE4F0E0808188608C93AFE4B0E0EFE45E
:1011F000F0E0808184608C930EC0AFE4B0E0EFE457
:10120000F0E080818B7F8C93AFE4B0E0EFE4F0E01E
:101210008081877F8C93AFE4B0E0EFE4F0E08081E1
:101220008C7F8C93AFE4B0E0EFE4F0E09081E98153
:10123000FA818081892B8C93AEE4B0E0EEE4F0E09B
:101240008081877E8C93AEE4B0E0EEE4F0E08081B4
:10125000282FE981FA818081882F90E0880F991FDB
:10126000822B8C93AEE4B0E0EEE4F0E08081887FE6
:101270008C93AEE4B0E0EEE4F0E09081E981FA8195
:101280008085892B8C93E981FA818185282F30E034
:101290003E832D838D819E81009709F43FC02D816F
:1012A0003E8121303105D1F5E981FA818081282FF5
:1012B00030E03C832B838B819C818430910589F0C5
:1012C0002B813C812C303105D9F08B819C8100979A
:1012D00029F5A9E5B0E0E9E5F0E0808184608C9330
:1012E0001DC0A9E5B0E0E9E5F0E0808188608C935D
:1012F000A9E5B0E0E9E5F0E0808180618C930EC063
:10130000A9E5B0E0E9E5F0E0808188608C93A9E58B
:10131000B0E0E9E5F0E0808180618C9326960FB61D
:10132000F894DEBF0FBECDBFCF91DF910895DF935C
:10133000CF93CDB7DEB72A970FB6F894DEBF0FBEB6
:10134000CDBF9A838983E981FA818181282F30E09A
:101350003A87298789859A85009739F029853A85C2
:101360002130310509F4E4C0B4C1E981FA818081FA
:10137000282F30E038872F838F819885843091051E
:10138000D9F12F813885253031052CF48F8198854E
:10139000009771F09EC12F8138852A30310509F4FC
:1013A00079C08F8198858E30910509F49AC091C1DA
:1013B000ACE4B0E0E981FA818285938511969C9333
:1013C0008E93E981FA818185882F90E0009709F05A
:1013D00080C1E8E5F0E0808186958695882F90E0D1
:1013E000817090700097A9F3A8E5B0E0E8E5F0E01F
:1013F000808184608C936DC1AAE4B0E0E981FA81B8
:101400008485958511969C938E93AFE4B0E0EFE4CC
:10141000F0E080818F738C93AFE4B0E0EFE4F0E014
:101420008081282FE981FA818281882F90E0002431
:10143000969587950794969587950794982F802D74
:10144000822B8C93E981FA818185282F30E03E83BD
:101450002D838D819E81009731F02D813E81213039
:101460003105A1F036C1E8E5F0E0808182958F700A
:10147000882F90E0817090700097A9F3A8E5B0E004
:10148000E8E5F0E0808180618C9323C181E30E94D4
:10149000AF301FC1AAE4B0E0E981FA818485958567
:1014A00011969C938E93AFE4B0E0EFE4F0E080817E
:1014B0008F738C93AFE4B0E0EFE4F0E08081282FED
:1014C000E981FA818681882F90E00024969587959E
:1014D0000794969587950794982F802D822B8C934F
:1014E000F8C0AAE4B0E0E981FA8184859585119677
:1014F0009C938E93AFE4B0E0EFE4F0E080818F73D3
:101500008C93AFE4B0E0EFE4F0E08081282FE98134
:10151000FA818481882F90E000249695879507941E
:10152000969587950794982F802D822B8C93D1C008
:10153000E981FA818081282F30E03C832B838B81E5
:101540009C8184309105D9F12B813C812530310576
:101550002CF48B819C81009771F0BBC02B813C8166
:101560002A30310509F46AC08B819C818E30910547
:1015700009F488C0AEC0ACE4B0E0E981FA818285AC
:10158000938511969C938E93E981FA818185882FAA
:1015900090E0009709F09DC0E8E5F0E08081869535
:1015A0008695882F90E0817090700097A9F3A8E548
:1015B000B0E0E8E5F0E0808184608C938AC0A8E424
:1015C000B0E0E981FA818485958511969C938E938C
:1015D000AFE4B0E0EFE4F0E080818F7C8C93AFE487
:1015E000B0E0EFE4F0E08081282FE981FA81838187
:1015F000882F90E082959295907F9827807F9827FA
:10160000822B8C93E981FA818185882F90E0009765
:1016100009F05FC0E8E5F0E08081869586958695C3
:10162000882F90E0817090700097A1F3A8E5B0E05A
:10163000E8E5F0E0808188608C934BC0A8E4B0E0DE
:10164000E981FA818485958511969C938E93AFE408
:10165000B0E0EFE4F0E080818F7C8C93AFE4B0E009
:10166000EFE4F0E08081282FE981FA818781882FDB
:1016700090E082959295907F9827807F9827822B83
:101680008C9327C0A8E4B0E0E981FA818485958530
:1016900011969C938E9380E690E00E947132AFE4A5
:1016A000B0E0EFE4F0E080818F7C8C93AFE4B0E0B9
:1016B000EFE4F0E08081282FE981FA818581882F8D
:1016C00090E082959295907F9827807F9827822B33
:1016D0008C932A960FB6F894DEBF0FBECDBFCF9184
:1016E000DF910895DF93CF9300D0CDB7DEB79A8313
:1016F0008983EAE4F0E089819A81918380830F9065
:101700000F90CF91DF910895DF93CF9300D0CDB7A5
:10171000DEB79A838983E8E4F0E089819A81918336
:1017200080830F900F90CF91DF910895DF93CF9337
:1017300000D0CDB7DEB79A838983E6E4F0E08981F3
:101740009A81918380830F900F90CF91DF910895BC
:10175000DF93CF93CDB7DEB7ECE4F0E080819181E9
:10176000CF91DF910895DF93CF9300D0CDB7DEB74F
:101770009A838983ECE4F0E089819A819183808364
:101780000F900F90CF91DF910895DF93CF9300D00A
:10179000CDB7DEB79A83898389819A81009731F02A
:1017A00089819A8190939C0180939B010F900F9067
:1017B000CF91DF9108951F920F920FB60F921124CF
:1017C0002F933F934F935F936F937F938F939F9349
:1017D000AF93BF93EF93FF93DF93CF93CDB7DEB774
:1017E00080919B0190919C01009729F0E0919B01D1
:1017F000F0919C010995CF91DF91FF91EF91BF91FD
:10180000AF919F918F917F916F915F914F913F9198
:101810002F910F900FBE0F901F901895DF93CF93CD
:101820000F92CDB7DEB78983A6E5B0E0E6E5F0E03C
:10183000808180648C93E0E2F0E080E28083A1E22A
:10184000B0E0E1E2F0E080818E7F8C93A1E2B0E035
:10185000E1E2F0E080818D7F8C938981882329F0FB
:10186000E2E2F0E08981880F8083A6E5B0E0E6E55A
:10187000F0E0808184608C930F90CF91DF91089588
:10188000DF93CF930F92CDB7DEB78983A6E5B0E0A3
:10189000E6E5F0E0808180648C93E2E2F0E089810B
:1018A000880F8083A6E5B0E0E6E5F0E08081846003
:1018B0008C930F90CF91DF910895DF93CF930F9288
:1018C000CDB7DEB71982A6E5B0E0E6E5F0E08081AD
:1018D00080628C93A6E5B0E0E6E5F0E08081806868
:1018E0008C93E6E5F0E080818823DCF7E1E2F0E02C
:1018F0008081882F90E0887F90708830910511F06A
:1019000081E0898389810F90CF91DF910895DF93E2
:10191000CF930F92CDB7DEB71982A6E5B0E0E6E52A
:10192000F0E0808180628C93A6E5B0E0E6E5F0E02F
:10193000808180688C93E6E5F0E080818823DCF785
:10194000E1E2F0E08081882F90E0887F9070803124
:10195000910511F082E0898389810F90CF91DF9109
:101960000895DF93CF9300D0CDB7DEB78A83198275
:10197000E3E2F0E08A81880F8083A3E2B0E0E3E253
:10198000F0E080818E7F8C93A6E5B0E0E6E5F0E0A4
:1019900080818F7D8C93A6E5B0E0E6E5F0E0808164
:1019A00080688C93E6E5F0E080818823DCF7E1E253
:1019B000F0E08081882F90E0887F907088319105D9
:1019C00011F083E0898389810F900F90CF91DF918F
:1019D0000895DF93CF9300D0CDB7DEB78A83198205
:1019E000E3E2F0E08A81880F8083A3E2B0E0E3E2E3
:1019F000F0E0808181608C93A6E5B0E0E6E5F0E060
:101A000080818F7D8C93A6E5B0E0E6E5F0E08081F3
:101A100080688C93E6E5F0E080818823DCF7E1E2E2
:101A2000F0E08081882F90E0887F9070803491056D
:101A300011F083E0898389810F900F90CF91DF911E
:101A40000895DF93CF9300D0CDB7DEB78A83198294
:101A5000E3E2F0E08A818083A6E5B0E0E6E5F0E02D
:101A6000808180688C93E6E5F0E080818823DCF754
:101A7000E1E2F0E08081882F90E0887F90708832EA
:101A8000910511F085E0898389810F900F90CF91A6
:101A9000DF910895DF93CF9300D00F92CDB7DEB7DB
:101AA0009B838A831982A6E5B0E0E6E5F0E08081B9
:101AB00080688C93E6E5F0E080818823DCF7E1E242
:101AC000F0E08081882F90E0887F907080359105CC
:101AD00019F086E0898306C0E3E2F0E08081EA81C4
:101AE000FB81808389810F900F900F90CF91DF91C0
:101AF0000895DF93CF93CDB7DEB7A6E5B0E0E6E576
:101B0000F0E0808180618C93A6E5B0E0E6E5F0E04E
:101B1000808180688C93CF91DF910895DF93CF937C
:101B2000CDB7DEB728970FB6F894DEBF0FBECDBF96
:101B30009A838983E981FA818081882329F0E98168
:101B4000FA818081823041F4A3E5B0E0E3E5F0E082
:101B5000808180688C9307C0A3E5B0E0E3E5F0E006
:101B600080818F778C93E981FA818081282F30E002
:101B700038872F838F8198858130910531F12F81AE
:101B80003885223031052CF48F819885009771F0CB
:101B900096C02F8138852230310509F43FC08F81EE
:101BA00098858330910509F462C089C0A3E5B0E04F
:101BB000E3E5F0E080818F7B8C93A3E5B0E0E3E583
:101BC000F0E08081877F8C937AC0A3E5B0E0E3E505
:101BD000F0E0808180648C93A3E5B0E0E3E5F0E081
:101BE0008081877F8C93A3E5B0E0E3E5F0E080811E
:101BF0008F7C8C93A3E5B0E0E3E5F0E08081282FB3
:101C0000E981FA818381882F90E082959295907F77
:101C10009827807F9827822B8C9351C0A3E5B0E052
:101C2000E3E5F0E080818F7B8C93A3E5B0E0E3E512
:101C3000F0E0808188608C93A3E5B0E0E3E5F0E01C
:101C400080818F7C8C93A3E5B0E0E3E5F0E08081B8
:101C5000282FE981FA818181882F90E082959295E1
:101C6000907F9827807F9827822B8C9328C0A3E5AC
:101C7000B0E0E3E5F0E0808180648C93A3E5B0E020
:101C8000E3E5F0E0808188608C93A3E5B0E0E3E5D4
:101C9000F0E080818F7C8C93A3E5B0E0E3E5F0E099
:101CA0008081282FE981FA818281882F90E08295B6
:101CB0009295907F9827807F9827822B8C93A3E51D
:101CC000B0E0E3E5F0E08081887F8C93A3E5B0E0AD
:101CD000E3E5F0E09081E981FA818481892B8C939E
:101CE000E981FA818581282F30E03E832D838D8123
:101CF0009E81009729F12D813E812130310501F52A
:101D0000E981FA818081282F30E03C832B838B810D
:101D10009C81009731F02B813C812230310549F0C4
:101D20000FC0A9E5B0E0E9E5F0E0808181608C9327
:101D300007C0A9E5B0E0E9E5F0E0808182608C931E
:101D400028960FB6F894DEBF0FBECDBFCF91DF91BE
:101D50000895DF93CF9300D000D0CDB7DEB79A833C
:101D60008983E981FA818081282F30E03C832B83AD
:101D70008B819C818130910509F454C02B813C8179
:101D8000223031052CF48B819C81009769F05BC077
:101D90002B813C812230310531F18B819C81833054
:101DA000910509F448C04FC0A2E5B0E0E981FA818D
:101DB00086818C93E981FA818581882F90E0009754
:101DC00009F041C0E8E5F0E08081882F90E0817063
:101DD00090700097B9F3A8E5B0E0E8E5F0E0808105
:101DE00081608C9330C0ACE5B0E0E981FA818781F5
:101DF0008C93E981FA818581882F90E0009719F50D
:101E0000E8E5F0E080818695882F90E08170907001
:101E10000097B1F3A8E5B0E0E8E5F0E080818260EA
:101E20008C9311C0ECE5F0E0A981BA8117968C91F2
:101E30001797808308C0ECE5F0E0A981BA81179676
:101E40008C91179780830F900F900F900F90CF91E8
:101E5000DF910895DF93CF9300D0CDB7DEB79A839B
:101E6000898389819A81009731F089819A81909341
:101E70009E0180939D010F900F90CF91DF91089567
:101E80001F920F920FB60F9211242F933F934F93EF
:101E90005F936F937F938F939F93AF93BF93EF93D2
:101EA000FF93DF93CF93CDB7DEB780919D019091E3
:101EB0009E01009729F0E0919D01F0919E01099506
:101EC000CF91DF91FF91EF91BF91AF919F918F9152
:101ED0007F916F915F914F913F912F910F900FBE26
:101EE0000F901F9018951F920F920FB60F9211240A
:101EF0002F933F934F935F936F937F938F939F9312
:101F0000AF93BF93EF93FF93DF93CF93CDB7DEB73C
:101F100080919D0190919E01009729F0E0919D0193
:101F2000F0919E010995CF91DF91FF91EF91BF91C3
:101F3000AF919F918F917F916F915F914F913F9161
:101F40002F910F900FBE0F901F901895DF93CF9396
:101F5000CDB7DEB7E2E5F0E08081CF91DF91089563
:101F6000DF93CF930F92CDB7DEB7898381E064E032
:101F700041E00E94801381E065E041E00E9480130F
:101F800081E066E040E00E94801381E067E041E08C
:101F90000E948013ADE2B0E0EDE2F0E080818F7D41
:101FA0008C93ADE2B0E0EDE2F0E0808180618C9353
:101FB000ADE2B0E0EDE2F0E08081877F8C93ADE2AE
:101FC000B0E0EDE2F0E080818B7F8C93ADE2B0E099
:101FD000EDE2F0E080818C7F8C93ADE2B0E0EDE249
:101FE000F0E090818981892B8C93ADE2B0E0EDE245
:101FF000F0E0808180648C930F90CF91DF91089501
:10200000DF93CF930F92CDB7DEB78983EFE2F0E095
:1020100089818083EEE2F0E08081881F8827881F15
:102020008130C1F70F90CF91DF910895DF93CF9367
:10203000CDB7DEB781E064E040E00E94801381E02C
:1020400064E041E00E94881481E065E040E00E9485
:10205000801381E066E041E00E94801381E067E048
:1020600040E00E948013ADE2B0E0EDE2F0E080815C
:1020700080648C93ADE2B0E0EDE2F0E080818F7D92
:102080008C93ADE2B0E0EDE2F0E080818F7E8C9346
:10209000CF91DF910895DF93CF93CDB7DEB7EEE216
:1020A000F0E08081881F8827881F8130C1F7EFE228
:1020B000F0E08081CF91DF910895DF93CF93CDB78A
:1020C000DEB7AFE5B0E0EFE5F0E0808180688C93AB
:1020D000CF91DF910895DF93CF93CDB7DEB7AFE512
:1020E000B0E0EFE5F0E080818F778C93CF91DF91C6
:1020F0000895DF93CF93CDB7DEB72A970FB6F89444
:10210000DEBF0FBECDBF89836A838981282F30E06F
:102110003A87298789859A858130910509F466C0B7
:1021200029853A852230310509F4BBC089859A8515
:10213000009709F0D4C08A81282F30E038872F8398
:102140008F8198858130910521F12F81388522304A
:1021500031052CF48F819885009761F0C0C02F81E4
:1021600038852230310521F18F81988583309105A2
:1021700071F1B5C0A5E5B0E0E5E5F0E080818260F1
:102180008C93A5E5B0E0E5E5F0E080818E7F8C934F
:10219000A6C0A5E5B0E0E5E5F0E0808182608C9323
:1021A000A5E5B0E0E5E5F0E0808181608C9397C023
:1021B000A5E5B0E0E5E5F0E0808181608C93A5E5E0
:1021C000B0E0E5E5F0E080818D7F8C9388C0A5E5E7
:1021D000B0E0E5E5F0E080818D7F8C93A5E5B0E08F
:1021E000E5E5F0E080818E7F8C9379C08A81282F8D
:1021F00030E03E832D838D819E818130910521F1D8
:102200002D813E81223031052CF48D819E810097F5
:1022100061F065C02D813E812230310521F18D8133
:102220009E818330910571F15AC0A5E5B0E0E5E5E6
:10223000F0E0808188608C93A5E5B0E0E5E5F0E012
:1022400080818B7F8C934BC0A5E5B0E0E5E5F0E0A5
:10225000808188608C93A5E5B0E0E5E5F0E08081C1
:1022600084608C933CC0A5E5B0E0E5E5F0E08081BA
:1022700084608C93A5E5B0E0E5E5F0E08081877FA0
:102280008C932DC0A5E5B0E0E5E5F0E08081877F87
:102290008C93A5E5B0E0E5E5F0E080818B7F8C9341
:1022A0001EC08A81282F30E03C832B838B819C8148
:1022B000009731F02B813C812130310549F00FC06E
:1022C000A4E5B0E0E4E5F0E080818F7B8C9307C06B
:1022D000A4E5B0E0E4E5F0E0808180648C932A9688
:1022E0000FB6F894DEBF0FBECDBFCF91DF9108953A
:1022F000DF93CF9300D00F92CDB7DEB7898389816A
:10230000282F30E03B832A838A819B81813091058D
:1023100089F02A813B8122303105A1F08A819B819D
:102320000097B9F4ABE5B0E0EBE5F0E080818064C4
:102330008C930FC0ABE5B0E0EBE5F0E08081806806
:102340008C9307C0ABE5B0E0EBE5F0E08081806204
:102350008C930F900F900F90CF91DF910895DF93A2
:10236000CF9300D00F92CDB7DEB789838981282F14
:1023700030E03B832A838A819B818130910589F0FB
:102380002A813B8122303105A1F08A819B8100970F
:10239000B9F4ABE5B0E0EBE5F0E080818F7B8C93A6
:1023A0000FC0ABE5B0E0EBE5F0E080818F778C9378
:1023B00007C0ABE5B0E0EBE5F0E080818F7D8C936A
:1023C0000F900F900F90CF91DF910895DF93CF93EF
:1023D00000D000D00F92CDB7DEB789837B836A83AC
:1023E0008981282F30E03D832C838C819D81813031
:1023F0009105A1F02C813D8122303105D1F08C81F5
:102400009D81009701F58A819B810097E1F08A8187
:102410009B819093A00180939F0115C08A819B812D
:10242000009789F08A819B819093A2018093A101FA
:102430000AC08A819B81009731F08A819B819093A9
:10244000A4018093A3010F900F900F900F900F9015
:10245000CF91DF9108951F920F920FB60F92112422
:102460002F933F934F935F936F937F938F939F939C
:10247000AF93BF93EF93FF93DF93CF93CDB7DEB7C7
:1024800080919F019091A001009729F0E0919F0118
:10249000F091A0010995CF91DF91FF91EF91BF914C
:1024A000AF919F918F917F916F915F914F913F91EC
:1024B0002F910F900FBE0F901F901895DF93CF9321
:1024C000CDB7DEB78091A1019091A201009729F0CC
:1024D000E091A101F091A2010995CF91DF910895BA
:1024E000DF93CF93CDB7DEB78091A3019091A40184
:1024F000009729F0E091A301F091A4010995CF91F3
:10250000DF910895DF93CF93CDB7DEB72A970FB64B
:10251000F894DEBF0FBECDBF89836A838981282FDF
:1025200030E03A87298789859A858130910509F4B9
:1025300066C029853A852230310509F4BBC08985FA
:102540009A85009709F0D3C08A81282F30E0388718
:102550002F838F81988581309105A9F02F8138854F
:10256000223031052CF48F8198850097D9F0BFC0B7
:102570002F8138852230310521F18F819885833074
:10258000910571F1B4C0A5E5B0E0E5E5F0E080812A
:1025900082608C93A5E5B0E0E5E5F0E080818160A4
:1025A0008C93A5C0A5E5B0E0E5E5F0E08081826010
:1025B0008C93A5E5B0E0E5E5F0E080818E7F8C931B
:1025C00096C0A5E5B0E0E5E5F0E080818D7F8C93D5
:1025D000A5E5B0E0E5E5F0E0808181608C9387C0FF
:1025E000A5E5B0E0E5E5F0E080818D7F8C93A5E581
:1025F000B0E0E5E5F0E080818E7F8C9378C08A8141
:10260000282F30E03E832D838D819E81813091057E
:10261000A9F02D813E81223031052CF48D819E81DF
:102620000097D9F064C02D813E812230310521F11F
:102630008D819E818330910571F159C0A5E5B0E08F
:10264000E5E5F0E0808188608C93A5E5B0E0E5E504
:10265000F0E0808184608C934AC0A5E5B0E0E5E5B8
:10266000F0E0808188608C93A5E5B0E0E5E5F0E0DE
:1026700080818B7F8C933BC0A5E5B0E0E5E5F0E081
:102680008081877F8C93A5E5B0E0E5E5F0E080816F
:1026900084608C932CC0A5E5B0E0E5E5F0E0808196
:1026A000877F8C93A5E5B0E0E5E5F0E080818B7F46
:1026B0008C931DC08A81282F30E03C832B838B8133
:1026C0009C81009769F02B813C812130310579F4A0
:1026D000A4E5B0E0E4E5F0E0808180648C9307C07D
:1026E000A4E5B0E0E4E5F0E080818F7B8C932A964E
:1026F0000FB6F894DEBF0FBECDBFCF91DF91089526
:10270000DF93CF93CDB7DEB729970FB6F894DEBF2E
:102710000FBECDBF89836A834B838B81282F30E026
:102720003987288788859985009709F475C0288599
:1027300039852130310509F0E2C08981282F30E048
:102740003F832E838E819F818130910549F12E81B7
:102750003F81223031052CF48E819F81009761F0FA
:10276000CEC02E813F812230310571F18E819F8153
:1027700083309105E9F1C3C0AAE3B0E0EAE3F0E0F9
:102780008081482F8A81282F30E081E090E0022E5E
:1027900002C0880F991F0A94E2F7842B8C93AFC074
:1027A000A7E3B0E0E7E3F0E08081482F8A81282F9B
:1027B00030E081E090E0022E02C0880F991F0A9459
:1027C000E2F7842B8C939BC0A4E3B0E0E4E3F0E059
:1027D0008081482F8A81282F30E081E090E0022E0E
:1027E00002C0880F991F0A94E2F7842B8C9387C04C
:1027F000A1E3B0E0E1E3F0E08081482F8A81282F57
:1028000030E081E090E0022E02C0880F991F0A9408
:10281000E2F7842B8C9373C08981282F30E03D83AD
:102820002C838C819D818130910559F12C813D81D2
:10283000223031052CF48C819D81009769F05FC0B6
:102840002C813D812230310589F18C819D8183303D
:10285000910509F440C053C0AAE3B0E0EAE3F0E018
:102860008081482F8A81282F30E081E090E0022E7D
:1028700002C0880F991F0A94E2F7809584238C93F5
:102880003EC0A7E3B0E0E7E3F0E08081482F8A8113
:10289000282F30E081E090E0022E02C0880F991FBF
:1028A0000A94E2F7809584238C9329C0A4E3B0E0D6
:1028B000E4E3F0E08081482F8A81282F30E081E036
:1028C00090E0022E02C0880F991F0A94E2F78095CB
:1028D00084238C9314C0A1E3B0E0E1E3F0E08081B5
:1028E000482F8A81282F30E081E090E0022E02C03C
:1028F000880F991F0A94E2F7809584238C93299678
:102900000FB6F894DEBF0FBECDBFCF91DF91089513
:10291000DF93CF93CDB7DEB729970FB6F894DEBF1C
:102920000FBECDBF89836A834B838B81282F30E014
:102930003987288788859985009709F475C0288587
:1029400039852130310509F0E2C08981282F30E036
:102950003F832E838E819F818130910549F12E81A5
:102960003F81223031052CF48E819F81009761F0E8
:10297000CEC02E813F812230310571F18E819F8141
:1029800083309105E9F1C3C0ABE3B0E0EBE3F0E0E5
:102990008081482F8A81282F30E081E090E0022E4C
:1029A00002C0880F991F0A94E2F7842B8C93AFC062
:1029B000A8E3B0E0E8E3F0E08081482F8A81282F87
:1029C00030E081E090E0022E02C0880F991F0A9447
:1029D000E2F7842B8C939BC0A5E3B0E0E5E3F0E045
:1029E0008081482F8A81282F30E081E090E0022EFC
:1029F00002C0880F991F0A94E2F7842B8C9387C03A
:102A0000A2E3B0E0E2E3F0E08081482F8A81282F42
:102A100030E081E090E0022E02C0880F991F0A94F6
:102A2000E2F7842B8C9373C08981282F30E03D839B
:102A30002C838C819D818130910559F12C813D81C0
:102A4000223031052CF48C819D81009769F05FC0A4
:102A50002C813D812230310589F18C819D8183302B
:102A6000910509F440C053C0ABE3B0E0EBE3F0E004
:102A70008081482F8A81282F30E081E090E0022E6B
:102A800002C0880F991F0A94E2F7809584238C93E3
:102A90003EC0A8E3B0E0E8E3F0E08081482F8A81FF
:102AA000282F30E081E090E0022E02C0880F991FAD
:102AB0000A94E2F7809584238C9329C0A5E3B0E0C3
:102AC000E5E3F0E08081482F8A81282F30E081E023
:102AD00090E0022E02C0880F991F0A94E2F78095B9
:102AE00084238C9314C0A2E3B0E0E2E3F0E08081A1
:102AF000482F8A81282F30E081E090E0022E02C02A
:102B0000880F991F0A94E2F7809584238C93299665
:102B10000FB6F894DEBF0FBECDBFCF91DF91089501
:102B2000DF93CF9300D000D00F92CDB7DEB78A836A
:102B30006B838FEF89838A81282F30E03D832C833C
:102B40004C815D814130510541F18C819D81823004
:102B5000910534F42C813D812115310561F052C07D
:102B60004C815D814230510551F18C819D818330D2
:102B70009105B9F147C0E9E3F0E08081282F30E00A
:102B80008B81882F90E0A90102C0559547958A95C1
:102B9000E2F7CA018170898335C0E6E3F0E0808105
:102BA000282F30E08B81882F90E0A90102C0559535
:102BB00047958A95E2F7CA018170898323C0E3E3D0
:102BC000F0E08081282F30E08B81882F90E0A901F0
:102BD00002C0559547958A95E2F7CA0181708983AD
:102BE00011C0E0E3F0E08081282F30E08B81882F56
:102BF00090E0A90102C0559547958A95E2F7CA0170
:102C00008170898389810F900F900F900F900F90A2
:102C1000CF91DF910895DF93CF93CDB7DEB728979B
:102C20000FB6F894DEBF0FBECDBF89836A838A8159
:102C3000282F30E038872F838F8198850097C9F13E
:102C40002F8138852130310509F061C08981282F15
:102C500030E03E832D838D819E8181309105D1F0BE
:102C60002D813E81223031052CF48D819E8100978B
:102C700061F04DC02D813E812230310581F08D8182
:102C80009E818330910581F042C0EAE3F0E08FEF4E
:102C900080833DC0E7E3F0E08FEF808338C0E4E35A
:102CA000F0E08FEF808333C0E1E3F0E08FEF8083CB
:102CB0002EC08981282F30E03C832B838B819C811F
:102CC00081309105C9F02B813C81223031052CF4F3
:102CD0008B819C81009761F01AC02B813C8122304E
:102CE000310571F08B819C818330910569F00FC0B3
:102CF000EAE3F0E010820BC0E7E3F0E0108207C0E7
:102D0000E4E3F0E0108203C0E1E3F0E010822896F3
:102D10000FB6F894DEBF0FBECDBFCF91DF910895FF
:102D2000DF93CF9300D000D0CDB7DEB789836A831D
:102D30008981282F30E03C832B838B819C818130DB
:102D40009105D1F02B813C81223031052CF48B810F
:102D50009C81009761F01EC02B813C81223031059F
:102D600081F08B819C818330910581F013C0EBE36E
:102D7000F0E08A8180830EC0E8E3F0E08A818083FE
:102D800009C0E5E3F0E08A81808304C0E2E3F0E07B
:102D90008A8180830F900F900F900F90CF91DF91D9
:102DA0000895DF93CF9300D000D0CDB7DEB78A83EC
:102DB0008FEF89838A81282F30E03C832B838B819E
:102DC0009C8181309105D1F02B813C8122303105ED
:102DD0002CF48B819C81009761F01EC02B813C817B
:102DE0002230310581F08B819C818330910581F007
:102DF00013C0E9E3F0E0808189830EC0E6E3F0E0F0
:102E00008081898309C0E3E3F0E08081898304C085
:102E1000E0E3F0E08081898389810F900F900F902B
:102E20000F90CF91DF910895DF93CF93CDB7DEB7A9
:102E300029970FB6F894DEBF0FBECDBF89836A8392
:102E40004B83A6E2B0E0E6E2F0E080818E7F8C93D7
:102E5000A6E2B0E0E6E2F0E0808182608C93A6E238
:102E6000B0E0E6E2F0E0808184608C938981282FD5
:102E700030E0398728878885998581309105C1F0B0
:102E8000288539852230310511F18885998500978B
:102E900061F5A7E2B0E0E7E2F0E080818F778C9304
:102EA000A7E2B0E0E7E2F0E080818F7B8C931DC069
:102EB000A7E2B0E0E7E2F0E080818F778C93A7E2B1
:102EC000B0E0E7E2F0E0808180648C930EC0A7E27E
:102ED000B0E0E7E2F0E0808180688C93A7E2B0E0A8
:102EE000E7E2F0E0808180648C938A81282F30E0D3
:102EF0003F832E838E819F81009731F02E813F8109
:102F00002130310549F00FC0A6E2B0E0E6E2F0E082
:102F1000808180628C9307C0A6E2B0E0E6E2F0E038
:102F200080818F7D8C938B81282F30E03D832C8393
:102F30008C819D81009731F02C813D8121303105BC
:102F400049F00FC0A7E2B0E0E7E2F0E080818062E4
:102F50008C9307C0A7E2B0E0E7E2F0E080818F7DCC
:102F60008C93A6E2B0E0E6E2F0E0808180688C938A
:102F700029960FB6F894DEBF0FBECDBFCF91DF917B
:102F80000895DF93CF9300D00F92CDB7DEB789833A
:102F90008981282F30E03B832A838A819B8183307B
:102FA000910509F470C02A813B812430310584F4F5
:102FB0008A819B8181309105D1F12A813B81223028
:102FC00031050CF04AC08A819B810097D1F0C8C0BE
:102FD0002A813B812530310509F481C08A819B819A
:102FE000853091050CF465C02A813B81263031057E
:102FF00009F48BC08A819B818730910509F49BC0BD
:10300000AFC0A7E2B0E0E7E2F0E080818E7F8C9372
:10301000A7E2B0E0E7E2F0E080818D7F8C93A7E249
:10302000B0E0E7E2F0E080818B7F8C9399C0A7E26B
:10303000B0E0E7E2F0E0808181608C93A7E2B0E04D
:10304000E7E2F0E080818D7F8C93A7E2B0E0E7E2D9
:10305000F0E080818B7F8C9383C0A7E2B0E0E7E251
:10306000F0E080818E7F8C93A7E2B0E0E7E2F0E0B1
:10307000808182608C93A7E2B0E0E7E2F0E080819B
:103080008B7F8C936DC0A7E2B0E0E7E2F0E0808137
:1030900081608C93A7E2B0E0E7E2F0E0808182609B
:1030A0008C93A7E2B0E0E7E2F0E080818B7F8C9325
:1030B00057C0A7E2B0E0E7E2F0E080818E7F8C931A
:1030C000A7E2B0E0E7E2F0E080818D7F8C93A7E299
:1030D000B0E0E7E2F0E0808184608C9341C0A7E239
:1030E000B0E0E7E2F0E0808181608C93A7E2B0E09D
:1030F000E7E2F0E080818D7F8C93A7E2B0E0E7E229
:10310000F0E0808184608C932BC0A7E2B0E0E7E21E
:10311000F0E080818E7F8C93A7E2B0E0E7E2F0E000
:10312000808182608C93A7E2B0E0E7E2F0E08081EA
:1031300084608C9315C0A7E2B0E0E7E2F0E0808104
:1031400081608C93A7E2B0E0E7E2F0E080818260EA
:103150008C93A7E2B0E0E7E2F0E0808184608C939A
:10316000A6E2B0E0E6E2F0E0808180648C930F900C
:103170000F900F90CF91DF910895DF93CF9300D000
:10318000CDB7DEB7E6E2F0E0808182958F70882FC0
:1031900090E0817090700097A9F3A6E2B0E0E6E2BB
:1031A000F0E0808180618C93E7E2F0E0808182959D
:1031B00086958770882F90E081709070009739F421
:1031C000E4E2F0E0808191819A8389831BC0E4E28C
:1031D000F0E080818295869586958370882F90E0B7
:1031E0009A838983E5E2F0E08081882F90E0880F60
:1031F000991F880F991F9C0189819A81822B932B9B
:103200009A83898389819A810F900F90CF91DF9162
:103210000895DF93CF93CDB7DEB781E060E041E062
:103220000E94801381E061E041E00E94801381E010
:1032300062E041E00E94801381E063E041E00E948F
:10324000801381E060E040E00E94881481E061E04A
:1032500040E00E94881481E062E040E00E9488140F
:1032600081E063E040E00E948814CF91DF910895EF
:10327000DF93CF9300D000D000D0CDB7DEB78B83E3
:103280006C835E834D838B81882309F04BC08C81D6
:10329000882311F51A82198207C00E94E6198981D4
:1032A0009A8101969A8389838D819E8100249695C7
:1032B00087950794969587950794982F802D2DE2F2
:1032C00030E0B9010E941D33CB019C0189819A81B4
:1032D0008217930710F371C08C81813009F06DC0A3
:1032E0001A82198207C00E94111C89819A81019655
:1032F0009A8389838D819E81002496958795079472
:10330000969587950794982F802D2DE230E0B9018E
:103310000E941D33CB019C0189819A8182179307FA
:1033200010F34BC08B81813009F047C08C8188231A
:1033300009F51A82198207C00E943C1E89819A8170
:1033400001969A8389838D819E81880F991F82952A
:103350009295907F9827807F98272DE230E0B901E1
:103360000E941D33CB019C0189819A8182179307AA
:1033700018F323C08C81813001F51A82198207C0AD
:103380000E945B2389819A8101969A8389838D812A
:103390009E81880F991F82959295907F9827807FB4
:1033A00098272DE230E0B9010E941D33CB019C012A
:1033B00089819A818217930718F326960FB6F8949D
:1033C000DEBF0FBECDBFCF91DF910895DF93CF93C6
:1033D000CDB7DEB7E8970FB6F894DEBF0FBECDBF0E
:1033E00081E060E040E00E94881481E061E041E01B
:1033F0000E94881481E062E041E00E94881481E02C
:1034000063E041E00E94881480E090E0AAE7B4E421
:103410008DAB9EABAFABB8AF6DA97EA98FA998ADB0
:1034200020E030E04AEF54E40E941F02DC01CB01AF
:1034300089AB9AABABABBCAB69A97AA98BA99CA9A8
:1034400020E030E040E85FE30E94250488232CF46C
:1034500081E090E098AB8FA73FC069A97AA98BA9BA
:103460009CA920E03FEF4FE757E40E94C5031816E0
:103470004CF56DA97EA98FA998AD20E030E040E21F
:1034800051E40E941F02DC01CB01BC01CD010E946E
:103490004900DC01CB0198AB8FA70FC088EC90E00E
:1034A0009EA78DA78DA59EA50197F1F79EA78DA735
:1034B0008FA598A9019798AB8FA78FA598A900977A
:1034C00069F714C069A97AA98BA99CA90E9449002F
:1034D000DC01CB0198AB8FA78FA598A99CA78BA7E0
:1034E0008BA59CA50197F1F79CA78BA781E060E0D5
:1034F00041E00E94881481E061E040E00E9488146D
:1035000081E062E041E00E94881481E063E041E0F4
:103510000E94881480E090E0AAE7B4E48FA398A703
:10352000A9A7BAA76FA178A589A59AA520E030E040
:103530004AEF54E40E941F02DC01CB018BA39CA341
:10354000ADA3BEA36BA17CA18DA19EA120E030E024
:1035500040E85FE30E94250488232CF481E090E09A
:103560009AA389A33FC06BA17CA18DA19EA120E05D
:103570003FEF4FE757E40E94C50318164CF56FA1C3
:1035800078A589A59AA520E030E040E251E40E94A8
:103590001F02DC01CB01BC01CD010E944900DC010E
:1035A000CB019AA389A30FC088EC90E098A38F8FDA
:1035B0008F8D98A10197F1F798A38F8F89A19AA178
:1035C00001979AA389A389A19AA1009769F714C0CA
:1035D0006BA17CA18DA19EA10E944900DC01CB01C1
:1035E0009AA389A389A19AA19E8F8D8F8D8D9E8D7F
:1035F0000197F1F79E8F8D8F81E060E041E00E949E
:10360000881481E061E041E00E94881481E062E07A
:1036100040E00E94881481E063E041E00E94881449
:1036200080E090E0AAE7B4E4898F9A8FAB8FBC8FDB
:10363000698D7A8D8B8D9C8D20E030E04AEF54E4CB
:103640000E941F02DC01CB018D8B9E8BAF8BB88F4C
:103650006D897E898F89988D20E030E040E85FE3B6
:103660000E94250488232CF481E090E09C8B8B8BB6
:103670003FC06D897E898F89988D20E03FEF4FE7AD
:1036800057E40E94C50318164CF5698D7A8D8B8D11
:103690009C8D20E030E040E251E40E941F02DC01FA
:1036A000CB01BC01CD010E944900DC01CB019C8B08
:1036B0008B8B0FC088EC90E09A8B898B89899A89D3
:1036C0000197F1F79A8B898B8B899C8901979C8B49
:1036D0008B8B8B899C89009769F714C06D897E89D3
:1036E0008F89988D0E944900DC01CB019C8B8B8BCC
:1036F0008B899C89988B8F878F8598890197F1F7A3
:10370000988B8F8781E060E041E00E94881481E01F
:1037100061E041E00E94881481E062E041E00E94A3
:10372000881481E063E040E00E94881480E090E02B
:10373000AAE7B4E48B879C87AD87BE876B857C85C1
:103740008D859E8520E030E04AEF54E40E941F0200
:10375000DC01CB018F839887A987BA876F81788531
:1037600089859A8520E030E040E85FE30E942504E7
:1037700088232CF481E090E09E838D833FC06F818D
:10378000788589859A8520E03FEF4FE757E40E94CE
:10379000C50318164CF56B857C858D859E8520E0CC
:1037A00030E040E251E40E941F02DC01CB01BC0189
:1037B000CD010E944900DC01CB019E838D830FC0A7
:1037C00088EC90E09C838B838B819C810197F1F73F
:1037D0009C838B838D819E8101979E838D838D81B8
:1037E0009E81009769F714C06F81788589859A85D5
:1037F0000E944900DC01CB019E838D838D819E81D7
:103800009A83898389819A810197F1F79A838983C1
:10381000E8960FB6F894DEBF0FBECDBFCF91DF9113
:103820000895DF93CF93CDB7DEB7E8970FB6F8943E
:10383000DEBF0FBECDBF81E060E040E00E94881493
:1038400081E061E040E00E94881481E062E040E0B5
:103850000E94881481E063E041E00E94881480E0C7
:1038600090E0AAE7B4E48DAB9EABAFABB8AF6DA967
:103870007EA98FA998AD20E030E04AEF54E40E9481
:103880001F02DC01CB0189AB9AABABABBCAB69A926
:103890007AA98BA99CA920E030E040E85FE30E9470
:1038A000250488232CF481E090E098AB8FA73FC0DB
:1038B00069A97AA98BA99CA920E03FEF4FE757E4BB
:1038C0000E94C50318164CF56DA97EA98FA998AD65
:1038D00020E030E040E251E40E941F02DC01CB0115
:1038E000BC01CD010E944900DC01CB0198AB8FA740
:1038F0000FC088EC90E09EA78DA78DA59EA501978F
:10390000F1F79EA78DA78FA598A9019798AB8FA7D0
:103910008FA598A9009769F714C069A97AA98BA9FE
:103920009CA90E944900DC01CB0198AB8FA78FA511
:1039300098A99CA78BA78BA59CA50197F1F79CA79D
:103940008BA781E060E040E00E94881481E061E0A4
:1039500040E00E94881481E062E041E00E94881407
:1039600081E063E040E00E94881480E090E0AAE7F4
:10397000B4E48FA398A7A9A7BAA76FA178A589A532
:103980009AA520E030E04AEF54E40E941F02DC01D7
:10399000CB018BA39CA3ADA3BEA36BA17CA18DA1E6
:1039A0009EA120E030E040E85FE30E9425048823E8
:1039B0002CF481E090E09AA389A33FC06BA17CA185
:1039C0008DA19EA120E03FEF4FE757E40E94C50381
:1039D00018164CF56FA178A589A59AA520E030E0CE
:1039E00040E251E40E941F02DC01CB01BC01CD0189
:1039F0000E944900DC01CB019AA389A30FC088EC87
:103A000090E098A38F8F8F8D98A10197F1F798A3DD
:103A10008F8F89A19AA101979AA389A389A19AA1BD
:103A2000009769F714C06BA17CA18DA19EA10E9493
:103A30004900DC01CB019AA389A389A19AA19E8F99
:103A40008D8F8D8D9E8D0197F1F79E8F8D8F81E0EB
:103A500060E040E00E94881481E061E041E00E9463
:103A6000881481E062E040E00E94881481E063E015
:103A700040E00E94881480E090E0AAE7B4E4898FD7
:103A80009A8FAB8FBC8F698D7A8D8B8D9C8D20E04A
:103A900030E04AEF54E40E941F02DC01CB018D8B21
:103AA0009E8BAF8BB88F6D897E898F89988D20E032
:103AB00030E040E85FE30E94250488232CF481E095
:103AC00090E09C8B8B8B3FC06D897E898F89988D10
:103AD00020E03FEF4FE757E40E94C50318164CF56E
:103AE000698D7A8D8B8D9C8D20E030E040E251E431
:103AF0000E941F02DC01CB01BC01CD010E944900E4
:103B0000DC01CB019C8B8B8B0FC088EC90E09A8BF7
:103B1000898B89899A890197F1F79A8B898B8B898F
:103B20009C8901979C8B8B8B8B899C89009769F76B
:103B300014C06D897E898F89988D0E944900DC01AF
:103B4000CB019C8B8B8B8B899C89988B8F878F85E6
:103B500098890197F1F7988B8F8781E060E041E0C9
:103B60000E94881481E061E040E00E94881481E0B6
:103B700062E040E00E94881481E063E040E00E943F
:103B8000881480E090E0AAE7B4E48B879C87AD8737
:103B9000BE876B857C858D859E8520E030E04AEF71
:103BA00054E40E941F02DC01CB018F839887A98710
:103BB000BA876F81788589859A8520E030E040E872
:103BC0005FE30E94250488232CF481E090E09E832B
:103BD0008D833FC06F81788589859A8520E03FEF8E
:103BE0004FE757E40E94C50318164CF56B857C859A
:103BF0008D859E8520E030E040E251E40E941F0266
:103C0000DC01CB01BC01CD010E944900DC01CB01EC
:103C10009E838D830FC088EC90E09C838B838B8187
:103C20009C810197F1F79C838B838D819E81019705
:103C30009E838D838D819E81009769F714C06F816B
:103C4000788589859A850E944900DC01CB019E8395
:103C50008D838D819E819A83898389819A81019741
:103C6000F1F79A838983E8960FB6F894DEBF0FBE0A
:103C7000CDBFCF91DF9108950F931F93DF93CF9323
:103C8000CDB7DEB7C057D0400FB6F894DEBF0FBE39
:103C9000CDBF81E060E041E00E94881481E061E0F6
:103CA00040E00E94881481E062E040E00E948814B5
:103CB00081E063E041E00E948814FE01E359FF4F78
:103CC00080E090E0AAE7B4E480839183A283B38389
:103CD0008E0107591F4FFE01E359FF4F608171812B
:103CE0008281938120E030E04AEF54E40E941F0279
:103CF000DC01CB01F80180839183A283B383FE01B1
:103D0000E759FF4F608171818281938120E030E02B
:103D100040E85FE30E942504882344F4FE01E9594A
:103D2000FF4F81E090E09183808364C0FE01E759FA
:103D3000FF4F608171818281938120E03FEF4FE7E7
:103D400057E40E94C50318160CF043C0FE01E35966
:103D5000FF4F608171818281938120E030E040E2F9
:103D600051E40E941F02DC01CB018E0109591F4F53
:103D7000BC01CD010E944900DC01CB01F801918317
:103D800080831FC0FE01EB59FF4F88EC90E09183C8
:103D90008083FE01EB59FF4F808191810197F1F7FC
:103DA000FE01EB59FF4F91838083DE01A959BF4F7C
:103DB000FE01E959FF4F80819181019711969C93F3
:103DC0008E93FE01E959FF4F808191810097D1F6D2
:103DD00027C08E0109591F4FFE01E759FF4F60812F
:103DE0007181828193810E944900DC01CB01F8013D
:103DF00091838083DE01AD59BF4FFE01E959FF4F2A
:103E0000808191818D939C93FE01ED59FF4F8081BC
:103E100091810197F1F7FE01ED59FF4F9183808366
:103E200081E060E041E00E94881481E061E040E0D0
:103E30000E94881481E062E040E00E94881481E0E2
:103E400063E040E00E948814FE01E15AFF4F80E0E9
:103E500090E0AAE7B4E480839183A283B3838E01C8
:103E6000055A1F4FFE01E15AFF4F60817181828127
:103E7000938120E030E04AEF54E40E941F02DC010D
:103E8000CB01F80180839183A283B383FE01E55ABD
:103E9000FF4F608171818281938120E030E040E8B2
:103EA0005FE30E942504882344F4FE01E75AFF4F94
:103EB00081E090E09183808364C0FE01E55AFF4F6A
:103EC000608171818281938120E03FEF4FE757E469
:103ED0000E94C50318160CF043C0FE01E15AFF4FC3
:103EE000608171818281938120E030E040E251E481
:103EF0000E941F02DC01CB018E01075A1F4FBC013B
:103F0000CD010E944900DC01CB01F801918380833F
:103F10001FC0FE01E95AFF4F88EC90E09183808337
:103F2000FE01E95AFF4F808191810197F1F7FE016F
:103F3000E95AFF4F91838083DE01A75ABF4FFE01EC
:103F4000E75AFF4F80819181019711969C938E9340
:103F5000FE01E75AFF4F808191810097D1F627C07B
:103F60008E01075A1F4FFE01E55AFF4F6081718194
:103F7000828193810E944900DC01CB01F801918389
:103F80008083DE01AB5ABF4FFE01E75AFF4F8081AD
:103F900091818D939C93FE01EB5AFF4F808191811B
:103FA0000197F1F7FE01EB5AFF4F9183808381E087
:103FB00060E041E00E94881481E061E041E00E94FD
:103FC000881481E062E040E00E94881481E063E0B0
:103FD00040E00E948814FE01EF5AFF4F80E090E01D
:103FE000AAE7B4E480839183A283B3838E01035B49
:103FF0001F4FFE01EF5AFF4F6081718182819381D3
:1040000020E030E04AEF54E40E941F02DC01CB01C3
:10401000F80180839183A283B383FE01E35BFF4FAA
:10402000608171818281938120E030E040E85FE32C
:104030000E942504882344F4FE01E55BFF4F81E0E4
:1040400090E09183808364C0FE01E35BFF4F608159
:1040500071818281938120E03FEF4FE757E40E9416
:10406000C50318160CF043C0FE01EF5AFF4F6081E4
:1040700071818281938120E030E040E251E40E942E
:104080001F02DC01CB018E01055B1F4FBC01CD017E
:104090000E944900DC01CB01F801918380831FC09D
:1040A000FE01E75BFF4F88EC90E091838083FE0187
:1040B000E75BFF4F808191810197F1F7FE01E75B9C
:1040C000FF4F91838083DE01A55BBF4FFE01E55B5F
:1040D000FF4F80819181019711969C938E93FE01F1
:1040E000E55BFF4F808191810097D1F627C08E015B
:1040F000055B1F4FFE01E35BFF4F60817181828191
:1041000093810E944900DC01CB01F80191838083F7
:10411000DE01A95BBF4FFE01E55BFF4F808191810E
:104120008D939C93FE01E95BFF4F80819181019704
:10413000F1F7FE01E95BFF4F9183808381E060E04E
:1041400040E00E94881481E061E041E00E94881410
:1041500081E062E040E00E94881481E063E040E09A
:104160000E948814FE01ED5BFF4F80E090E0AAE71B
:10417000B4E480839183A283B3838E01015C1F4FDB
:10418000FE01ED5BFF4F608171818281938120E0B0
:1041900030E04AEF54E40E941F02DC01CB01F80139
:1041A00080839183A283B383FE01FF966081718136
:1041B0008281938120E030E040E85FE30E942504A3
:1041C00088232CF481E090E09EAF8DAF46C0FE01C5
:1041D000FF96608171818281938120E03FEF4FE7FC
:1041E00057E40E94C503181664F5FE01ED5BFF4F0E
:1041F000608171818281938120E030E040E251E46E
:104200000E941F02DC01CB01BC01CD010E944900CC
:10421000DC01CB019EAF8DAF0FC088EC90E09CAF6E
:104220008BAF8BAD9CAD0197F1F79CAF8BAF8DAD94
:104230009EAD01979EAF8DAF8DAD9EAD009769F796
:1042400016C0FE01FF9660817181828193810E9478
:104250004900DC01CB019EAF8DAF8DAD9EAD9AAF15
:1042600089AF89AD9AAD0197F1F79AAF89AF81E037
:1042700060E040E00E94881481E061E041E00E943B
:10428000881481E062E041E00E94881481E063E0EC
:1042900040E00E94881480E090E0AAE7B4E48DAB8F
:1042A0009EABAFABB8AF6DA97EA98FA998AD20E04A
:1042B00030E04AEF54E40E941F02DC01CB0189ABDD
:1042C0009AABABABBCAB69A97AA98BA99CA920E03E
:1042D00030E040E85FE30E94250488232CF481E06D
:1042E00090E098AB8FA73FC069A97AA98BA99CA938
:1042F00020E03FEF4FE757E40E94C50318164CF546
:104300006DA97EA98FA998AD20E030E040E251E48C
:104310000E941F02DC01CB01BC01CD010E944900BB
:10432000DC01CB0198AB8FA70FC088EC90E09EA773
:104330008DA78DA59EA50197F1F79EA78DA78FA5A7
:1043400098A9019798AB8FA78FA598A9009769F7AF
:1043500014C069A97AA98BA99CA90E944900DC0113
:10436000CB0198AB8FA78FA598A99CA78BA78BA5EE
:104370009CA50197F1F79CA78BA781E060E040E046
:104380000E94881481E061E040E00E94881481E08E
:1043900062E041E00E94881481E063E040E00E9416
:1043A000881480E090E0AAE7B4E48FA398A7A9A7B7
:1043B000BAA76FA178A589A59AA520E030E04AEFB9
:1043C00054E40E941F02DC01CB018BA39CA3ADA38C
:1043D000BEA36BA17CA18DA19EA120E030E040E8AE
:1043E0005FE30E94250488232CF481E090E09AA3E7
:1043F00089A33FC06BA17CA18DA19EA120E03FEFCE
:104400004FE757E40E94C50318164CF56FA178A535
:1044100089A59AA520E030E040E251E40E941F0205
:10442000DC01CB01BC01CD010E944900DC01CB01C4
:104430009AA389A30FC088EC90E098A38F8F8F8DEB
:1044400098A10197F1F798A38F8F89A19AA101975D
:104450009AA389A389A19AA1009769F714C06BA1B7
:104460007CA18DA19EA10E944900DC01CB019AA3F1
:1044700089A389A19AA19E8F8D8F8D8D9E8D019785
:10448000F1F79E8F8D8F81E060E040E00E948814FC
:1044900081E061E040E00E94881481E062E041E058
:1044A0000E94881481E063E041E00E94881480E06B
:1044B00090E0AAE7B4E4898F9A8FAB8FBC8F698DA7
:1044C0007A8D8B8D9C8D20E030E04AEF54E40E9481
:1044D0001F02DC01CB018D8B9E8BAF8BB88F6D895A
:1044E0007E898F89988D20E030E040E85FE30E946C
:1044F000250488232CF481E090E09C8B8B8B3FC0BB
:104500006D897E898F89988D20E03FEF4FE757E4D2
:104510000E94C50318164CF5698D7A8D8B8D9C8D84
:1045200020E030E040E251E40E941F02DC01CB01B8
:10453000BC01CD010E944900DC01CB019C8B8B8B1F
:104540000FC088EC90E09A8B898B89899A890197B2
:10455000F1F79A8B898B8B899C8901979C8B8B8B2C
:104560008B899C89009769F714C06D897E898F8932
:10457000988D0E944900DC01CB019C8B8B8B8B8931
:104580009C89988B8F878F8598890197F1F7988BF5
:104590008F8781E060E040E00E94881481E061E064
:1045A00040E00E94881481E062E040E00E948814AC
:1045B00081E063E041E00E94881480E090E0AAE797
:1045C000B4E48B879C87AD87BE876B857C858D85A2
:1045D0009E8520E030E04AEF54E40E941F02DC0197
:1045E000CB018F839887A987BA876F817885898562
:1045F0009A8520E030E040E85FE30E9425048823AC
:104600002CF481E090E09E838D833FC06F8178859C
:1046100089859A8520E03FEF4FE757E40E94C50364
:1046200018164CF56B857C858D859E8520E030E0E5
:1046300040E251E40E941F02DC01CB01BC01CD012C
:104640000E944900DC01CB019E838D830FC088EC62
:1046500090E09C838B838B819C810197F1F79C83F5
:104660008B838D819E8101979E838D838D819E8119
:10467000009769F714C06F81788589859A850E94B3
:104680004900DC01CB019E838D838D819E819A83BD
:10469000898389819A810197F1F79A838983C05927
:1046A000DF4F0FB6F894DEBF0FBECDBFCF91DF91C5
:1046B0001F910F9108950F931F93DF93CF93CDB761
:1046C000DEB7C057D0400FB6F894DEBF0FBECDBFE7
:1046D00081E060E041E00E94881481E061E040E018
:1046E0000E94881481E062E040E00E94881481E02A
:1046F00063E041E00E948814FE01E359FF4F80E02F
:1047000090E0AAE7B4E480839183A283B3838E010F
:1047100007591F4FFE01E359FF4F6081718182816C
:10472000938120E030E04AEF54E40E941F02DC0154
:10473000CB01F80180839183A283B383FE01E75903
:10474000FF4F608171818281938120E030E040E8F9
:104750005FE30E942504882344F4FE01E959FF4FDA
:1047600081E090E09183808364C0FE01E759FF4FB0
:10477000608171818281938120E03FEF4FE757E4B0
:104780000E94C50318160CF043C0FE01E359FF4F09
:10479000608171818281938120E030E040E251E4C8
:1047A0000E941F02DC01CB018E0109591F4FBC0181
:1047B000CD010E944900DC01CB01F8019183808387
:1047C0001FC0FE01EB59FF4F88EC90E0918380837E
:1047D000FE01EB59FF4F808191810197F1F7FE01B6
:1047E000EB59FF4F91838083DE01A959BF4FFE0132
:1047F000E959FF4F80819181019711969C938E9387
:10480000FE01E959FF4F808191810097D1F627C0C1
:104810008E0109591F4FFE01E759FF4F60817181D9
:10482000828193810E944900DC01CB01F8019183D0
:104830008083DE01AD59BF4FFE01E959FF4F8081F2
:1048400091818D939C93FE01ED59FF4F8081918161
:104850000197F1F7FE01ED59FF4F9183808381E0CD
:1048600060E041E00E94881481E061E040E00E9445
:10487000881481E062E040E00E94881481E063E0F7
:1048800040E00E948814FE01E15AFF4F80E090E072
:10489000AAE7B4E480839183A283B3838E01055A8F
:1048A0001F4FFE01E15AFF4F608171818281938128
:1048B00020E030E04AEF54E40E941F02DC01CB010B
:1048C000F80180839183A283B383FE01E55AFF4FF1
:1048D000608171818281938120E030E040E85FE374
:1048E0000E942504882344F4FE01E75AFF4F81E02B
:1048F00090E09183808364C0FE01E55AFF4F6081A0
:1049000071818281938120E03FEF4FE757E40E945D
:10491000C50318160CF043C0FE01E15AFF4F608139
:1049200071818281938120E030E040E251E40E9475
:104930001F02DC01CB018E01075A1F4FBC01CD01C4
:104940000E944900DC01CB01F801918380831FC0E4
:10495000FE01E95AFF4F88EC90E091838083FE01CD
:10496000E95AFF4F808191810197F1F7FE01E95AE1
:10497000FF4F91838083DE01A75ABF4FFE01E75AA4
:10498000FF4F80819181019711969C938E93FE0138
:10499000E75AFF4F808191810097D1F627C08E01A1
:1049A000075A1F4FFE01E55AFF4F608171818281D6
:1049B00093810E944900DC01CB01F801918380833F
:1049C000DE01AB5ABF4FFE01E75AFF4F8081918154
:1049D0008D939C93FE01EB5AFF4F8081918101974B
:1049E000F1F7FE01EB5AFF4F9183808381E060E095
:1049F00041E00E94881481E061E041E00E94881457
:104A000081E062E040E00E94881481E063E040E0E1
:104A10000E948814FE01EF5AFF4F80E090E0AAE761
:104A2000B4E480839183A283B3838E01035B1F4F21
:104A3000FE01EF5AFF4F608171818281938120E0F6
:104A400030E04AEF54E40E941F02DC01CB01F80180
:104A500080839183A283B383FE01E35BFF4F608178
:104A600071818281938120E030E040E85FE30E9421
:104A70002504882344F4FE01E55BFF4F81E090E0CC
:104A80009183808364C0FE01E35BFF4F608171818D
:104A90008281938120E03FEF4FE757E40E94C503F6
:104AA00018160CF043C0FE01EF5AFF4F6081718170
:104AB0008281938120E030E040E251E40E941F02B5
:104AC000DC01CB018E01055B1F4FBC01CD010E94B3
:104AD0004900DC01CB01F801918380831FC0FE01F6
:104AE000E75BFF4F88EC90E091838083FE01E75BFA
:104AF000FF4F808191810197F1F7FE01E75BFF4F46
:104B000091838083DE01A55BBF4FFE01E55BFF4F14
:104B100080819181019711969C938E93FE01E55BB4
:104B2000FF4F808191810097D1F627C08E01055BF0
:104B30001F4FFE01E35BFF4F608171818281938192
:104B40000E944900DC01CB01F80191838083DE01E2
:104B5000A95BBF4FFE01E55BFF4F808191818D9383
:104B60009C93FE01E95BFF4F808191810197F1F7F2
:104B7000FE01E95BFF4F9183808381E060E040E0CC
:104B80000E94881481E061E041E00E94881481E085
:104B900062E040E00E94881481E063E040E00E940F
:104BA0008814FE01ED5BFF4F80E090E0AAE7B4E4DB
:104BB00080839183A283B3838E01015C1F4FFE012A
:104BC000ED5BFF4F608171818281938120E030E055
:104BD0004AEF54E40E941F02DC01CB01F8018083FC
:104BE0009183A283B383FE01FF96608171818281EC
:104BF000938120E030E040E85FE30E9425048823B1
:104C00002CF481E090E09EAF8DAF46C0FE01FF9690
:104C1000608171818281938120E03FEF4FE757E40B
:104C20000E94C503181664F5FE01ED5BFF4F60811D
:104C300071818281938120E030E040E251E40E9462
:104C40001F02DC01CB01BC01CD010E944900DC0147
:104C5000CB019EAF8DAF0FC088EC90E09CAF8BAFC7
:104C60008BAD9CAD0197F1F79CAF8BAF8DAD9EAD39
:104C700001979EAF8DAF8DAD9EAD009769F716C0C1
:104C8000FE01FF9660817181828193810E944900BB
:104C9000DC01CB019EAF8DAF8DAD9EAD9AAF89AFDC
:104CA00089AD9AAD0197F1F79AAF89AF81E060E0E5
:104CB00040E00E94881481E061E041E00E94881495
:104CC00081E062E041E00E94881481E063E040E01E
:104CD0000E94881480E090E0AAE7B4E48DAB9EAB1C
:104CE000AFABB8AF6DA97EA98FA998AD20E030E039
:104CF0004AEF54E40E941F02DC01CB0189AB9AAB5E
:104D0000ABABBCAB69A97AA98BA99CA920E030E028
:104D100040E85FE30E94250488232CF481E090E0C2
:104D200098AB8FA73FC069A97AA98BA99CA920E05D
:104D30003FEF4FE757E40E94C50318164CF56DA9E5
:104D40007EA98FA998AD20E030E040E251E40E94B6
:104D50001F02DC01CB01BC01CD010E944900DC0136
:104D6000CB0198AB8FA70FC088EC90E09EA78DA7D2
:104D70008DA59EA50197F1F79EA78DA78FA598A950
:104D8000019798AB8FA78FA598A9009769F714C0D2
:104D900069A97AA98BA99CA90E944900DC01CB01D1
:104DA00098AB8FA78FA598A99CA78BA78BA59CA52F
:104DB0000197F1F79CA78BA781E060E040E00E949B
:104DC000881481E061E040E00E94881481E062E0A4
:104DD00041E00E94881481E063E040E00E94881472
:104DE00080E090E0AAE7B4E48FA398A7A9A7BAA7A8
:104DF0006FA178A589A59AA520E030E04AEF54E498
:104E00000E941F02DC01CB018BA39CA3ADA3BEA318
:104E10006BA17CA18DA19EA120E030E040E85FE382
:104E20000E94250488232CF481E090E09AA389A3B2
:104E30003FC06BA17CA18DA19EA120E03FEF4FE779
:104E400057E40E94C50318164CF56FA178A589A5F3
:104E50009AA520E030E040E251E40E941F02DC010C
:104E6000CB01BC01CD010E944900DC01CB019AA31A
:104E700089A30FC088EC90E098A38F8F8F8D98A1A5
:104E80000197F1F798A38F8F89A19AA101979AA30F
:104E900089A389A19AA1009769F714C06BA17CA18D
:104EA0008DA19EA10E944900DC01CB019AA389A398
:104EB00089A19AA19E8F8D8F8D8D9E8D0197F1F77F
:104EC0009E8F8D8F81E060E040E00E94881481E039
:104ED00061E040E00E94881481E062E041E00E94CD
:104EE000881481E063E041E00E94881480E090E053
:104EF000AAE7B4E4898F9A8FAB8FBC8F698D7A8DC6
:104F00008B8D9C8D20E030E04AEF54E40E941F021C
:104F1000DC01CB018D8B9E8BAF8BB88F6D897E8929
:104F20008F89988D20E030E040E85FE30E942504FF
:104F300088232CF481E090E09C8B8B8B3FC06D89A3
:104F40007E898F89988D20E03FEF4FE757E40E94DC
:104F5000C50318164CF5698D7A8D8B8D9C8D20E0DC
:104F600030E040E251E40E941F02DC01CB01BC01B1
:104F7000CD010E944900DC01CB019C8B8B8B0FC0C3
:104F800088EC90E09A8B898B89899A890197F1F74F
:104F90009A8B898B8B899C8901979C8B8B8B8B89B6
:104FA0009C89009769F714C06D897E898F89988DD7
:104FB0000E944900DC01CB019C8B8B8B8B899C89E7
:104FC000988B8F878F8598890197F1F7988B8F87BA
:104FD00081E060E040E00E94881481E061E040E010
:104FE0000E94881481E062E040E00E94881481E021
:104FF00063E041E00E94881480E090E0AAE7B4E416
:105000008B879C87AD87BE876B857C858D859E85CC
:1050100020E030E04AEF54E40E941F02DC01CB01A3
:105020008F839887A987BA876F81788589859A85C4
:1050300020E030E040E85FE30E94250488232CF460
:1050400081E090E09E838D833FC06F817885898564
:105050009A8520E03FEF4FE757E40E94C5031816FA
:105060004CF56B857C858D859E8520E030E040E2A7
:1050700051E40E941F02DC01CB01BC01CD010E9462
:105080004900DC01CB019E838D830FC088EC90E04A
:105090009C838B838B819C810197F1F79C838B830D
:1050A0008D819E8101979E838D838D819E81009746
:1050B00069F714C06F81788589859A850E944900B7
:1050C000DC01CB019E838D838D819E819A838983B0
:1050D00089819A810197F1F79A838983C059DF4FBB
:1050E0000FB6F894DEBF0FBECDBFCF91DF911F91F9
:1050F0000F910895DF93CF93CDB7DEB783E065E0DE
:1051000041E00E94801381E791E00E94D60881E08F
:1051100061E041E00E941417CF91DF910895DF9381
:10512000CF9300D000D0CDB7DEB79C838B838B812B
:105130009C81865A9F4F9C838B838B819C81CC0161
:10514000A0E0B0E0BC01CD010E94A904DC01CB01CC
:10515000BC01CD0121EC3AEC41EB50E40E941F026E
:10516000DC01CB01BC01CD0120E030E04AE754E492
:105170000E94F201DC01CB01BC01CD010E9449007B
:10518000DC01CB019A83898389819A8190937E0186
:1051900080937D0180E29EE40E94960B81E791E07E
:1051A0000E9497090F900F900F900F90CF91DF9171
:1051B0000895DF93CF9300D0CDB7DEB784E00E948F
:1051C000C1170E94BD189A83898389819A81CC0175
:1051D000A0E0B0E0BC01CD010E94A904DC01CB013C
:1051E000BC01CD012FE832EC45EB50E40E941903DD
:1051F000DC01CB01BC01CD0120E030E044EB52E406
:105200000E94C101DC01CB01BC01CD010E9449001B
:10521000DC01CB010E948F280F900F90CF91DF917E
:105220000895DF93CF9300D000D0CDB7DEB79A8337
:105230008983E981FA81808161E00E940B16E9810E
:10524000FA818181282F30E03C832B838B819C81E4
:10525000009761F02B813C812130310569F4E981AF
:10526000FA81808160E00E94901606C0E981FA818F
:1052700080816FEF0E9490160F900F900F900F900B
:10528000CF91DF910895DF93CF9300D000D00F929C
:10529000CDB7DEB79A8389836B83E981FA818181F7
:1052A000282F30E03D832C838C819D810097B1F0C5
:1052B0002C813D8121303105F9F4E981FA81208189
:1052C0008B81882F90E0FC01E157FE4F8081982F61
:1052D0009095822F692F0E9490160EC0E981FA8165
:1052E00020818B81882F90E0FC01E157FE4F908157
:1052F000822F692F0E9490160F900F900F900F90A1
:105300000F90CF91DF910895DF93CF9300D000D01D
:10531000CDB7DEB79A838983E981FA818181282F0D
:1053200030E03C832B838B819C81009761F02B8143
:105330003C812130310569F4E981FA81808160E0A6
:105340000E94901606C0E981FA8180816FEF0E9469
:1053500090160F900F900F900F90CF91DF910895BE
:10536000DF93CF9300D000D0CDB7DEB79A83898387
:10537000E981FA818081E981FA819181692F41E097
:105380000E948013E981FA818281282F30E03C83DA
:105390002B838B819C81009781F02B813C81213074
:1053A0003105A9F4E981FA818081E981FA8191814D
:1053B000692F40E00E9488140AC0E981FA81808147
:1053C000E981FA819181692F41E00E9488140F9050
:1053D0000F900F900F90CF91DF910895DF93CF93AF
:1053E00000D000D0CDB7DEB79A838983E981FA81F6
:1053F0008281282F30E03C832B838B819C81009716
:1054000081F02B813C8121303105A9F4E981FA81B9
:105410008081E981FA819181692F41E00E9488149D
:105420000AC0E981FA818081E981FA819181692F3D
:1054300040E00E9488140F900F900F900F90CF9132
:10544000DF910895DF93CF9300D000D0CDB7DEB7C2
:105450009A838983E981FA818281282F30E03C8315
:105460002B838B819C81009781F02B813C812130A3
:105470003105A9F4E981FA818081E981FA8191817C
:10548000692F40E00E9488140AC0E981FA81808176
:10549000E981FA819181692F41E00E9488140F907F
:1054A0000F900F900F90CF91DF910895DF93CF93DE
:1054B000CDB7DEB780E060E041E00E94801380E07D
:1054C00061E041E00E94801380E062E041E00E94E0
:1054D000801380E063E041E00E94801380E064E09C
:1054E00040E00E94801380E065E040E00E9480136D
:1054F00080E066E040E00E94801380E067E040E0EA
:105500000E94801380E06FEF0E949016CF91DF9190
:105510000895DF93CF93CDB7DEB76F970FB6F894AA
:10552000DEBF0FBECDBF80E090E0A8E4B2E4898F7B
:105530009A8FAB8FBC8F698D7A8D8B8D9C8D20E07F
:1055400030E04AEF54E40E941F02DC01CB018D8B56
:105550009E8BAF8BB88F6D897E898F89988D20E067
:1055600030E040E85FE30E94250488232CF481E0CA
:1055700090E09C8B8B8B3FC06D897E898F89988D45
:1055800020E03FEF4FE757E40E94C50318164CF5A3
:10559000698D7A8D8B8D9C8D20E030E040E251E466
:1055A0000E941F02DC01CB01BC01CD010E94490019
:1055B000DC01CB019C8B8B8B0FC088EC90E09A8B2D
:1055C000898B89899A890197F1F79A8B898B8B89C5
:1055D0009C8901979C8B8B8B8B899C89009769F7A1
:1055E00014C06D897E898F89988D0E944900DC01E5
:1055F000CB019C8B8B8B8B899C89988B8F878F851C
:1056000098890197F1F7988B8F878FEF8F8F1E8E78
:10561000ABC080E06E8D40E00E94881484E08D8FE6
:1056200097C080E06D8D0E949015882309F08DC091
:105630008D8D882F90E0AC01445050408E8D282FE6
:1056400030E0CA01880F991F880F991F820F931F9E
:10565000FC01E158FE4F80818F8F80E090E0A8E44C
:10566000B2E48B879C87AD87BE876B857C858D85F3
:105670009E8520E030E04AEF54E40E941F02DC01E6
:10568000CB018F839887A987BA876F8178858985B1
:105690009A8520E030E040E85FE30E9425048823FB
:1056A0002CF481E090E09E838D833FC06F817885EC
:1056B00089859A8520E03FEF4FE757E40E94C503B4
:1056C00018164CF56B857C858D859E8520E030E035
:1056D00040E251E40E941F02DC01CB01BC01CD017C
:1056E0000E944900DC01CB019E838D830FC088ECB2
:1056F00090E09C838B838B819C810197F1F79C8345
:105700008B838D819E8101979E838D838D819E8168
:10571000009769F714C06F81788589859A850E9402
:105720004900DC01CB019E838D838D819E819A830C
:10573000898389819A810197F1F79A83898380E02F
:105740006D8D0E9490158823D1F38D8D8F5F8D8F85
:105750008D8D883008F465CF80E06E8D41E00E9429
:1057600088148E8D8F5F8E8F8E8D843008F451CF8C
:105770008F8D6F960FB6F894DEBF0FBECDBFCF9161
:10578000DF910895DF93CF93CDB7DEB760970FB663
:10579000F894DEBF0FBECDBF8F87688B0E945D0C73
:1057A00082E062E041E00E94881482E50E94B10C30
:1057B0008F850E94210D88890E94210D0E94790DFC
:1057C00080E090E0A0EAB1E48B879C87AD87BE873C
:1057D0006B857C858D859E8520E030E04AEF54E422
:1057E0000E941F02DC01CB018F839887A987BA87AB
:1057F0006F81788589859A8520E030E040E85FE315
:105800000E94250488232CF481E090E09E838D8300
:105810003FC06F81788589859A8520E03FEF4FE70B
:1058200057E40E94C50318164CF56B857C858D8561
:105830009E8520E030E040E251E40E941F02DC013E
:10584000CB01BC01CD010E944900DC01CB019E834C
:105850008D830FC088EC90E09C838B838B819C812F
:105860000197F1F79C838B838D819E8101979E83A5
:105870008D838D819E81009769F714C06F81788533
:1058800089859A850E944900DC01CB019E838D8326
:105890008D819E819A83898389819A810197F1F70D
:1058A0009A83898360960FB6F894DEBF0FBECDBF92
:1058B000CF91DF910895DF93CF9300D00F92CDB7B2
:1058C000DEB789837B836A830E945D0C82E50E9438
:1058D000B10C89810E94210D0E94870C82E50E94F3
:1058E000E90C8A819B810E944A0D0E94790D0F90DC
:1058F0000F900F90CF91DF9108950F931F93DF9337
:10590000CF93CDB7DEB7CC54D0400FB6F894DEBFFE
:105910000FBECDBF80E061E00E940B1683E067E020
:1059200041E00E94801383E066E041E00E94801322
:1059300083E063E041E00E948013FE01E75BFF4FDC
:1059400080E090E0A8E4B2E480839183A283B383F3
:105950008E010B5B1F4FFE01E75BFF4F6081718182
:105960008281938120E030E04AEF54E40E941F02DC
:10597000DC01CB01F80180839183A283B383FE0114
:10598000EB5BFF4F608171818281938120E030E089
:1059900040E85FE30E942504882344F4FE01ED5BA8
:1059A000FF4F81E090E09183808364C0FE01EB5B58
:1059B000FF4F608171818281938120E03FEF4FE74B
:1059C00057E40E94C50318160CF043C0FE01E75BC4
:1059D000FF4F608171818281938120E030E040E25D
:1059E00051E40E941F02DC01CB018E010D5B1F4FB1
:1059F000BC01CD010E944900DC01CB01F80191837B
:105A000080831FC0FE01EF5BFF4F88EC90E0918325
:105A10008083FE01EF5BFF4F808191810197F1F759
:105A2000FE01EF5BFF4F91838083DE01AD5BBF4FD3
:105A3000FE01ED5BFF4F80819181019711969C9350
:105A40008E93FE01ED5BFF4F808191810097D1F62F
:105A500024C08E010D5B1F4FFE01EB5BFF4F608189
:105A60007181828193810E944900DC01CB01F801A0
:105A700091838083FE01ED5BFF4F80819181FE0168
:105A8000FF9691838083FE01FF968081918101972B
:105A9000F1F7FE01FF969183808388E30E94532FE4
:105AA00080E090E0A8E4B2E48BAF9CAFADAFBEAFB6
:105AB0006BAD7CAD8DAD9EAD2BEA3AEA4AE250E487
:105AC0000E941F02DC01CB018FAB98AFA9AFBAAF28
:105AD0006FA978AD89AD9AAD20E030E040E85FE392
